{
  "_format": "hh-sol-artifact-1",
  "contractName": "Voting",
  "sourceName": "contracts/Voting.sol",
  "abi": [
    {
      "inputs": [],
      "stateMutability": "nonpayable",
      "type": "constructor"
    },
    {
      "anonymous": false,
      "inputs": [
        {
          "indexed": false,
          "internalType": "string",
          "name": "name",
          "type": "string"
        }
      ],
      "name": "CandidateAdded",
      "type": "event"
    },
    {
      "anonymous": false,
      "inputs": [
        {
          "indexed": false,
          "internalType": "address",
          "name": "voter",
          "type": "address"
        },
        {
          "indexed": false,
          "internalType": "uint256",
          "name": "candidateIndex",
          "type": "uint256"
        }
      ],
      "name": "VoteCast",
      "type": "event"
    },
    {
      "anonymous": false,
      "inputs": [
        {
          "indexed": false,
          "internalType": "address",
          "name": "voter",
          "type": "address"
        }
      ],
      "name": "VoterRegistered",
      "type": "event"
    },
    {
      "inputs": [
        {
          "internalType": "string",
          "name": "_name",
          "type": "string"
        }
      ],
      "name": "addCandidate",
      "outputs": [],
      "stateMutability": "nonpayable",
      "type": "function"
    },
    {
      "inputs": [],
      "name": "admin",
      "outputs": [
        {
          "internalType": "address",
          "name": "",
          "type": "address"
        }
      ],
      "stateMutability": "view",
      "type": "function"
    },
    {
      "inputs": [
        {
          "internalType": "uint256",
          "name": "",
          "type": "uint256"
        }
      ],
      "name": "candidates",
      "outputs": [
        {
          "internalType": "string",
          "name": "name",
          "type": "string"
        },
        {
          "internalType": "uint256",
          "name": "voteCount",
          "type": "uint256"
        }
      ],
      "stateMutability": "view",
      "type": "function"
    },
    {
      "inputs": [
        {
          "internalType": "uint256",
          "name": "_index",
          "type": "uint256"
        }
      ],
      "name": "getCandidate",
      "outputs": [
        {
          "internalType": "string",
          "name": "",
          "type": "string"
        },
        {
          "internalType": "uint256",
          "name": "",
          "type": "uint256"
        }
      ],
      "stateMutability": "view",
      "type": "function"
    },
    {
      "inputs": [],
      "name": "getCandidates",
      "outputs": [
        {
          "components": [
            {
              "internalType": "string",
              "name": "name",
              "type": "string"
            },
            {
              "internalType": "uint256",
              "name": "voteCount",
              "type": "uint256"
            }
          ],
          "internalType": "struct Voting.Candidate[]",
          "name": "",
          "type": "tuple[]"
        }
      ],
      "stateMutability": "view",
      "type": "function"
    },
    {
      "inputs": [
        {
          "internalType": "address",
          "name": "_voter",
          "type": "address"
        }
      ],
      "name": "registerVoter",
      "outputs": [],
      "stateMutability": "nonpayable",
      "type": "function"
    },
    {
      "inputs": [],
      "name": "startVoting",
      "outputs": [],
      "stateMutability": "nonpayable",
      "type": "function"
    },
    {
      "inputs": [],
      "name": "stopVoting",
      "outputs": [],
      "stateMutability": "nonpayable",
      "type": "function"
    },
    {
      "inputs": [
        {
          "internalType": "uint256",
          "name": "_candidateIndex",
          "type": "uint256"
        }
      ],
      "name": "vote",
      "outputs": [],
      "stateMutability": "nonpayable",
      "type": "function"
    },
    {
      "inputs": [
        {
          "internalType": "address",
          "name": "",
          "type": "address"
        }
      ],
      "name": "voters",
      "outputs": [
        {
          "internalType": "bool",
          "name": "isRegistered",
          "type": "bool"
        },
        {
          "internalType": "bool",
          "name": "hasVoted",
          "type": "bool"
        },
        {
          "internalType": "uint256",
          "name": "voteIndex",
          "type": "uint256"
        }
      ],
      "stateMutability": "view",
      "type": "function"
    },
    {
      "inputs": [],
      "name": "votingOpen",
      "outputs": [
        {
          "internalType": "bool",
          "name": "",
          "type": "bool"
        }
      ],
      "stateMutability": "view",
      "type": "function"
    }
  ],
  "bytecode": "0x6080604052348015600f57600080fd5b50336000806101000a81548173ffffffffffffffffffffffffffffffffffffffff021916908373ffffffffffffffffffffffffffffffffffffffff1602179055506117e88061005f6000396000f3fe608060405234801561001057600080fd5b50600436106100a95760003560e01c806338db6dd31161007157806338db6dd314610154578063462e91ec14610170578063a3ec138d1461018c578063a95824b4146101be578063f851a440146101dc578063fab2f86b146101fa576100a9565b80630121b93f146100ae57806306a49fce146100ca5780631ec6b60a146100e85780633477ee2e146100f257806335b8e82014610123575b600080fd5b6100c860048036038101906100c39190610c33565b610204565b005b6100d2610420565b6040516100df9190610dfe565b60405180910390f35b6100f061051b565b005b61010c60048036038101906101079190610c33565b6105c6565b60405161011a929190610e79565b60405180910390f35b61013d60048036038101906101389190610c33565b610682565b60405161014b929190610e79565b60405180910390f35b61016e60048036038101906101699190610f07565b610792565b005b61018a60048036038101906101859190611069565b610998565b005b6101a660048036038101906101a19190610f07565b610ac3565b6040516101b5939291906110cd565b60405180910390f35b6101c6610b07565b6040516101d39190611104565b60405180910390f35b6101e4610b1a565b6040516101f1919061112e565b60405180910390f35b610202610b3e565b005b600360009054906101000a900460ff16610253576040517f08c379a000000000000000000000000000000000000000000000000000000000815260040161024a90611195565b60405180910390fd5b6000600160003373ffffffffffffffffffffffffffffffffffffffff1673ffffffffffffffffffffffffffffffffffffffff16815260200190815260200160002090508060000160009054906101000a900460ff166102e7576040517f08c379a00000000000000000000000000000000000000000000000000000000081526004016102de90611201565b60405180910390fd5b8060000160019054906101000a900460ff1615610339576040517f08c379a00000000000000000000000000000000000000000000000000000000081526004016103309061126d565b60405180910390fd5b6002805490508210610380576040517f08c379a0000000000000000000000000000000000000000000000000000000008152600401610377906112d9565b60405180910390fd5b60018160000160016101000a81548160ff0219169083151502179055508181600101819055506001600283815481106103bc576103bb6112f9565b5b906000526020600020906002020160010160008282546103dc9190611357565b925050819055507fa36cc2bebb74db33e9f88110a07ef56e1b31b24b4c4f51b54b1664266e29f45b338360405161041492919061138b565b60405180910390a15050565b60606002805480602002602001604051908101604052809291908181526020016000905b828210156105125783829060005260206000209060020201604051806040016040529081600082018054610477906113e3565b80601f01602080910402602001604051908101604052809291908181526020018280546104a3906113e3565b80156104f05780601f106104c5576101008083540402835291602001916104f0565b820191906000526020600020905b8154815290600101906020018083116104d357829003601f168201915b5050505050815260200160018201548152505081526020019060010190610444565b50505050905090565b60008054906101000a900473ffffffffffffffffffffffffffffffffffffffff1673ffffffffffffffffffffffffffffffffffffffff163373ffffffffffffffffffffffffffffffffffffffff16146105a9576040517f08c379a00000000000000000000000000000000000000000000000000000000081526004016105a090611486565b60405180910390fd5b6001600360006101000a81548160ff021916908315150217905550565b600281815481106105d657600080fd5b90600052602060002090600202016000915090508060000180546105f9906113e3565b80601f0160208091040260200160405190810160405280929190818152602001828054610625906113e3565b80156106725780601f1061064757610100808354040283529160200191610672565b820191906000526020600020905b81548152906001019060200180831161065557829003601f168201915b5050505050908060010154905082565b6060600060028054905083106106cd576040517f08c379a00000000000000000000000000000000000000000000000000000000081526004016106c4906112d9565b60405180910390fd5b6000600284815481106106e3576106e26112f9565b5b90600052602060002090600202019050806000018160010154818054610708906113e3565b80601f0160208091040260200160405190810160405280929190818152602001828054610734906113e3565b80156107815780601f1061075657610100808354040283529160200191610781565b820191906000526020600020905b81548152906001019060200180831161076457829003601f168201915b505050505091509250925050915091565b60008054906101000a900473ffffffffffffffffffffffffffffffffffffffff1673ffffffffffffffffffffffffffffffffffffffff163373ffffffffffffffffffffffffffffffffffffffff1614610820576040517f08c379a000000000000000000000000000000000000000000000000000000000815260040161081790611486565b60405180910390fd5b600160008273ffffffffffffffffffffffffffffffffffffffff1673ffffffffffffffffffffffffffffffffffffffff16815260200190815260200160002060000160009054906101000a900460ff16156108b0576040517f08c379a00000000000000000000000000000000000000000000000000000000081526004016108a7906114f2565b60405180910390fd5b60405180606001604052806001151581526020016000151581526020016000815250600160008373ffffffffffffffffffffffffffffffffffffffff1673ffffffffffffffffffffffffffffffffffffffff16815260200190815260200160002060008201518160000160006101000a81548160ff02191690831515021790555060208201518160000160016101000a81548160ff021916908315150217905550604082015181600101559050507fb6be2187d059cc2a55fe29e0e503b566e1e0f8c8780096e185429350acffd3dd8160405161098d919061112e565b60405180910390a150565b60008054906101000a900473ffffffffffffffffffffffffffffffffffffffff1673ffffffffffffffffffffffffffffffffffffffff163373ffffffffffffffffffffffffffffffffffffffff1614610a26576040517f08c379a0000000000000000000000000000000000000000000000000000000008152600401610a1d90611486565b60405180910390fd5b60026040518060400160405280838152602001600081525090806001815401808255809150506001900390600052602060002090600202016000909190919091506000820151816000019081610a7c91906116be565b506020820151816001015550507ff29562dad1599aea0ebb142466120aab326d5efa8f839df82a9c064bf78e893881604051610ab89190611790565b60405180910390a150565b60016020528060005260406000206000915090508060000160009054906101000a900460ff16908060000160019054906101000a900460ff16908060010154905083565b600360009054906101000a900460ff1681565b60008054906101000a900473ffffffffffffffffffffffffffffffffffffffff1681565b60008054906101000a900473ffffffffffffffffffffffffffffffffffffffff1673ffffffffffffffffffffffffffffffffffffffff163373ffffffffffffffffffffffffffffffffffffffff1614610bcc576040517f08c379a0000000000000000000000000000000000000000000000000000000008152600401610bc390611486565b60405180910390fd5b6000600360006101000a81548160ff021916908315150217905550565b6000604051905090565b600080fd5b600080fd5b6000819050919050565b610c1081610bfd565b8114610c1b57600080fd5b50565b600081359050610c2d81610c07565b92915050565b600060208284031215610c4957610c48610bf3565b5b6000610c5784828501610c1e565b91505092915050565b600081519050919050565b600082825260208201905092915050565b6000819050602082019050919050565b600081519050919050565b600082825260208201905092915050565b60005b83811015610cc6578082015181840152602081019050610cab565b60008484015250505050565b6000601f19601f8301169050919050565b6000610cee82610c8c565b610cf88185610c97565b9350610d08818560208601610ca8565b610d1181610cd2565b840191505092915050565b610d2581610bfd565b82525050565b60006040830160008301518482036000860152610d488282610ce3565b9150506020830151610d5d6020860182610d1c565b508091505092915050565b6000610d748383610d2b565b905092915050565b6000602082019050919050565b6000610d9482610c60565b610d9e8185610c6b565b935083602082028501610db085610c7c565b8060005b85811015610dec5784840389528151610dcd8582610d68565b9450610dd883610d7c565b925060208a01995050600181019050610db4565b50829750879550505050505092915050565b60006020820190508181036000830152610e188184610d89565b905092915050565b600082825260208201905092915050565b6000610e3c82610c8c565b610e468185610e20565b9350610e56818560208601610ca8565b610e5f81610cd2565b840191505092915050565b610e7381610bfd565b82525050565b60006040820190508181036000830152610e938185610e31565b9050610ea26020830184610e6a565b9392505050565b600073ffffffffffffffffffffffffffffffffffffffff82169050919050565b6000610ed482610ea9565b9050919050565b610ee481610ec9565b8114610eef57600080fd5b50565b600081359050610f0181610edb565b92915050565b600060208284031215610f1d57610f1c610bf3565b5b6000610f2b84828501610ef2565b91505092915050565b600080fd5b600080fd5b7f4e487b7100000000000000000000000000000000000000000000000000000000600052604160045260246000fd5b610f7682610cd2565b810181811067ffffffffffffffff82111715610f9557610f94610f3e565b5b80604052505050565b6000610fa8610be9565b9050610fb48282610f6d565b919050565b600067ffffffffffffffff821115610fd457610fd3610f3e565b5b610fdd82610cd2565b9050602081019050919050565b82818337600083830152505050565b600061100c61100784610fb9565b610f9e565b90508281526020810184848401111561102857611027610f39565b5b611033848285610fea565b509392505050565b600082601f8301126110505761104f610f34565b5b8135611060848260208601610ff9565b91505092915050565b60006020828403121561107f5761107e610bf3565b5b600082013567ffffffffffffffff81111561109d5761109c610bf8565b5b6110a98482850161103b565b91505092915050565b60008115159050919050565b6110c7816110b2565b82525050565b60006060820190506110e260008301866110be565b6110ef60208301856110be565b6110fc6040830184610e6a565b949350505050565b600060208201905061111960008301846110be565b92915050565b61112881610ec9565b82525050565b6000602082019050611143600083018461111f565b92915050565b7f566f74696e67206973206e6f74206f70656e2e00000000000000000000000000600082015250565b600061117f601383610e20565b915061118a82611149565b602082019050919050565b600060208201905081810360008301526111ae81611172565b9050919050565b7f596f7520617265206e6f74207265676973746572656420746f20766f74652e00600082015250565b60006111eb601f83610e20565b91506111f6826111b5565b602082019050919050565b6000602082019050818103600083015261121a816111de565b9050919050565b7f596f75206861766520616c726561647920766f7465642e000000000000000000600082015250565b6000611257601783610e20565b915061126282611221565b602082019050919050565b600060208201905081810360008301526112868161124a565b9050919050565b7f496e76616c69642063616e64696461746520696e6465782e0000000000000000600082015250565b60006112c3601883610e20565b91506112ce8261128d565b602082019050919050565b600060208201905081810360008301526112f2816112b6565b9050919050565b7f4e487b7100000000000000000000000000000000000000000000000000000000600052603260045260246000fd5b7f4e487b7100000000000000000000000000000000000000000000000000000000600052601160045260246000fd5b600061136282610bfd565b915061136d83610bfd565b925082820190508082111561138557611384611328565b5b92915050565b60006040820190506113a0600083018561111f565b6113ad6020830184610e6a565b9392505050565b7f4e487b7100000000000000000000000000000000000000000000000000000000600052602260045260246000fd5b600060028204905060018216806113fb57607f821691505b60208210810361140e5761140d6113b4565b5b50919050565b7f4f6e6c792061646d696e2063616e2063616c6c20746869732066756e6374696f60008201527f6e2e000000000000000000000000000000000000000000000000000000000000602082015250565b6000611470602283610e20565b915061147b82611414565b604082019050919050565b6000602082019050818103600083015261149f81611463565b9050919050565b7f566f74657220697320616c726561647920726567697374657265642e00000000600082015250565b60006114dc601c83610e20565b91506114e7826114a6565b602082019050919050565b6000602082019050818103600083015261150b816114cf565b9050919050565b60008190508160005260206000209050919050565b60006020601f8301049050919050565b600082821b905092915050565b6000600883026115747fffffffffffffffffffffffffffffffffffffffffffffffffffffffffffffffff82611537565b61157e8683611537565b95508019841693508086168417925050509392505050565b6000819050919050565b60006115bb6115b66115b184610bfd565b611596565b610bfd565b9050919050565b6000819050919050565b6115d5836115a0565b6115e96115e1826115c2565b848454611544565b825550505050565b600090565b6115fe6115f1565b6116098184846115cc565b505050565b5b8181101561162d576116226000826115f6565b60018101905061160f565b5050565b601f8211156116725761164381611512565b61164c84611527565b8101602085101561165b578190505b61166f61166785611527565b83018261160e565b50505b505050565b600082821c905092915050565b600061169560001984600802611677565b1980831691505092915050565b60006116ae8383611684565b9150826002028217905092915050565b6116c782610c8c565b67ffffffffffffffff8111156116e0576116df610f3e565b5b6116ea82546113e3565b6116f5828285611631565b600060209050601f8311600181146117285760008415611716578287015190505b61172085826116a2565b865550611788565b601f19841661173686611512565b60005b8281101561175e57848901518255600182019150602085019450602081019050611739565b8683101561177b5784890151611777601f891682611684565b8355505b6001600288020188555050505b505050505050565b600060208201905081810360008301526117aa8184610e31565b90509291505056fea26469706673582212209deb0046c572283815c68eae97dc70ef009ccbcd26781eb2371fb163bfd5b12164736f6c634300081b0033",
  "linkReferences": {},
  "deployedLinkReferences": {}
}